{
  "contractName": "CurrencyExchange",
  "abi": [
    {
      "inputs": [
        {
          "internalType": "address",
          "name": "",
          "type": "address"
        },
        {
          "internalType": "string",
          "name": "",
          "type": "string"
        },
        {
          "internalType": "string",
          "name": "",
          "type": "string"
        }
      ],
      "name": "balances",
      "outputs": [
        {
          "internalType": "uint256",
          "name": "",
          "type": "uint256"
        }
      ],
      "stateMutability": "view",
      "type": "function"
    },
    {
      "inputs": [
        {
          "internalType": "string",
          "name": "",
          "type": "string"
        },
        {
          "internalType": "string",
          "name": "",
          "type": "string"
        }
      ],
      "name": "exchangeRates",
      "outputs": [
        {
          "internalType": "uint256",
          "name": "",
          "type": "uint256"
        }
      ],
      "stateMutability": "view",
      "type": "function"
    },
    {
      "inputs": [
        {
          "internalType": "string",
          "name": "_fromCurrency",
          "type": "string"
        },
        {
          "internalType": "string",
          "name": "_toCurrency",
          "type": "string"
        },
        {
          "internalType": "uint256",
          "name": "_rate",
          "type": "uint256"
        }
      ],
      "name": "updateExchangeRate",
      "outputs": [],
      "stateMutability": "nonpayable",
      "type": "function"
    },
    {
      "inputs": [
        {
          "internalType": "address",
          "name": "_user",
          "type": "address"
        },
        {
          "internalType": "uint256",
          "name": "_fromAmount",
          "type": "uint256"
        },
        {
          "internalType": "string",
          "name": "_fromCurrency",
          "type": "string"
        },
        {
          "internalType": "string",
          "name": "_toCurrency",
          "type": "string"
        }
      ],
      "name": "exchange",
      "outputs": [
        {
          "internalType": "bool",
          "name": "",
          "type": "bool"
        }
      ],
      "stateMutability": "nonpayable",
      "type": "function"
    },
    {
      "inputs": [
        {
          "internalType": "address",
          "name": "_user",
          "type": "address"
        },
        {
          "internalType": "string",
          "name": "_fromCurrency",
          "type": "string"
        },
        {
          "internalType": "string",
          "name": "_toCurrency",
          "type": "string"
        },
        {
          "internalType": "uint256",
          "name": "_amount",
          "type": "uint256"
        }
      ],
      "name": "updateUserBalance",
      "outputs": [
        {
          "internalType": "bool",
          "name": "",
          "type": "bool"
        }
      ],
      "stateMutability": "nonpayable",
      "type": "function"
    }
  ],
  "bytecode": "0x608060405234801561001057600080fd5b50610b10806100206000396000f3fe608060405234801561001057600080fd5b50600436106100575760003560e01c806362860a2b1461005c5780637d8beaa51461008c578063c5b2109e146100bc578063f93ac2d6146100ec578063f98520bd1461011c575b600080fd5b61007660048036038101906100719190610570565b610138565b6040516100839190610601565b60405180910390f35b6100a660048036038101906100a1919061067a565b610189565b6040516100b39190610601565b60405180910390f35b6100d660048036038101906100d19190610731565b6101e7565b6040516100e391906107eb565b60405180910390f35b61010660048036038101906101019190610806565b610349565b60405161011391906107eb565b60405180910390f35b610136600480360381019061013191906108a5565b6103d2565b005b60018280516020810182018051848252602083016020850120818352809550505050505081805160208101820180518482526020830160208501208183528095505050505050600091509150505481565b6000602052826000526040600020828051602081018201805184825260208301602085012081835280955050505050508180516020810182018051848252602083016020850120818352809550505050505060009250925050505481565b6000806001846040516101fa91906109a1565b90815260200160405180910390208360405161021691906109a1565b90815260200160405180910390205411610265576040517f08c379a000000000000000000000000000000000000000000000000000000000815260040161025c90610a15565b60405180910390fd5b600060018460405161027791906109a1565b90815260200160405180910390208360405161029391906109a1565b908152602001604051809103902054856102ad9190610a64565b9050806000808873ffffffffffffffffffffffffffffffffffffffff1673ffffffffffffffffffffffffffffffffffffffff168152602001908152602001600020856040516102fc91906109a1565b90815260200160405180910390208460405161031891906109a1565b908152602001604051809103902060008282546103359190610aa6565b925050819055506001915050949350505050565b6000816000808773ffffffffffffffffffffffffffffffffffffffff1673ffffffffffffffffffffffffffffffffffffffff1681526020019081526020016000208560405161039891906109a1565b9081526020016040518091039020846040516103b491906109a1565b90815260200160405180910390208190555060019050949350505050565b806001846040516103e391906109a1565b9081526020016040518091039020836040516103ff91906109a1565b908152602001604051809103902081905550505050565b6000604051905090565b600080fd5b600080fd5b600080fd5b600080fd5b6000601f19601f8301169050919050565b7f4e487b7100000000000000000000000000000000000000000000000000000000600052604160045260246000fd5b61047d82610434565b810181811067ffffffffffffffff8211171561049c5761049b610445565b5b80604052505050565b60006104af610416565b90506104bb8282610474565b919050565b600067ffffffffffffffff8211156104db576104da610445565b5b6104e482610434565b9050602081019050919050565b82818337600083830152505050565b600061051361050e846104c0565b6104a5565b90508281526020810184848401111561052f5761052e61042f565b5b61053a8482856104f1565b509392505050565b600082601f8301126105575761055661042a565b5b8135610567848260208601610500565b91505092915050565b6000806040838503121561058757610586610420565b5b600083013567ffffffffffffffff8111156105a5576105a4610425565b5b6105b185828601610542565b925050602083013567ffffffffffffffff8111156105d2576105d1610425565b5b6105de85828601610542565b9150509250929050565b6000819050919050565b6105fb816105e8565b82525050565b600060208201905061061660008301846105f2565b92915050565b600073ffffffffffffffffffffffffffffffffffffffff82169050919050565b60006106478261061c565b9050919050565b6106578161063c565b811461066257600080fd5b50565b6000813590506106748161064e565b92915050565b60008060006060848603121561069357610692610420565b5b60006106a186828701610665565b935050602084013567ffffffffffffffff8111156106c2576106c1610425565b5b6106ce86828701610542565b925050604084013567ffffffffffffffff8111156106ef576106ee610425565b5b6106fb86828701610542565b9150509250925092565b61070e816105e8565b811461071957600080fd5b50565b60008135905061072b81610705565b92915050565b6000806000806080858703121561074b5761074a610420565b5b600061075987828801610665565b945050602061076a8782880161071c565b935050604085013567ffffffffffffffff81111561078b5761078a610425565b5b61079787828801610542565b925050606085013567ffffffffffffffff8111156107b8576107b7610425565b5b6107c487828801610542565b91505092959194509250565b60008115159050919050565b6107e5816107d0565b82525050565b600060208201905061080060008301846107dc565b92915050565b600080600080608085870312156108205761081f610420565b5b600061082e87828801610665565b945050602085013567ffffffffffffffff81111561084f5761084e610425565b5b61085b87828801610542565b935050604085013567ffffffffffffffff81111561087c5761087b610425565b5b61088887828801610542565b92505060606108998782880161071c565b91505092959194509250565b6000806000606084860312156108be576108bd610420565b5b600084013567ffffffffffffffff8111156108dc576108db610425565b5b6108e886828701610542565b935050602084013567ffffffffffffffff81111561090957610908610425565b5b61091586828701610542565b92505060406109268682870161071c565b9150509250925092565b600081519050919050565b600081905092915050565b60005b83811015610964578082015181840152602081019050610949565b60008484015250505050565b600061097b82610930565b610985818561093b565b9350610995818560208601610946565b80840191505092915050565b60006109ad8284610970565b915081905092915050565b600082825260208201905092915050565b7f45786368616e67652072617465206e6f74207365740000000000000000000000600082015250565b60006109ff6015836109b8565b9150610a0a826109c9565b602082019050919050565b60006020820190508181036000830152610a2e816109f2565b9050919050565b7f4e487b7100000000000000000000000000000000000000000000000000000000600052601160045260246000fd5b6000610a6f826105e8565b9150610a7a836105e8565b9250828202610a88816105e8565b91508282048414831517610a9f57610a9e610a35565b5b5092915050565b6000610ab1826105e8565b9150610abc836105e8565b9250828201905080821115610ad457610ad3610a35565b5b9291505056fea264697066735822122006d874e21fac21348ccc92d730c20f3a28725d7ea7ef6822b2b303092021313a64736f6c63430008110033",
  "immutableReferences": {},
  "source": "pragma solidity ^0.8.10;\r\n\r\ncontract CurrencyExchange {\r\n\r\n    mapping(address => mapping(string => mapping(string => uint256))) public balances;\r\n\r\n    // Store the exchange rate\r\n    mapping(string => mapping(string => uint256)) public exchangeRates;\r\n\r\n    function updateExchangeRate(string memory _fromCurrency, string memory _toCurrency, uint256 _rate)\r\n        public\r\n    {\r\n        exchangeRates[_fromCurrency][_toCurrency] = _rate;\r\n    }\r\n\r\nfunction exchange(address _user, uint256 _fromAmount, string memory _fromCurrency, string memory _toCurrency) public returns (bool) {\r\n    // retrieve the exchange rate from the smart contract\r\n    require(exchangeRates[_fromCurrency][_toCurrency] > 0, \"Exchange rate not set\");\r\n    // calculate the converted amount\r\n    uint256 convertedAmount = _fromAmount * exchangeRates[_fromCurrency][_toCurrency];\r\n    // update the user balance\r\n    balances[_user][_fromCurrency][_toCurrency] += convertedAmount;\r\n    return true;\r\n}\r\n\r\nfunction updateUserBalance(address _user, string memory _fromCurrency, string memory _toCurrency, uint256 _amount) public returns (bool) {\r\n    balances[_user][_fromCurrency][_toCurrency] = _amount;\r\n    return true;\r\n}\r\n\r\n}",
  "sourcePath": "C:\\Users\\User\\Desktop\\yungxin\\pandaborderless-git\\cross-border-payment-api\\contracts\\CurrencyExchange.sol",
  "compiler": {
    "name": "solc",
    "version": "0.8.17+commit.8df45f5f.Emscripten.clang"
  },
  "schemaVersion": "3.4.11",
  "updatedAt": "2023-01-16T11:18:41.912Z",
  "devdoc": {
    "kind": "dev",
    "methods": {},
    "version": 1
  },
  "userdoc": {
    "kind": "user",
    "methods": {},
    "version": 1
  }
}