{
  "contractName": "PandaCoin",
  "abi": [
    {
      "inputs": [],
      "stateMutability": "nonpayable",
      "type": "constructor"
    },
    {
      "anonymous": false,
      "inputs": [
        {
          "indexed": true,
          "internalType": "address",
          "name": "owner",
          "type": "address"
        },
        {
          "indexed": true,
          "internalType": "address",
          "name": "spender",
          "type": "address"
        },
        {
          "indexed": false,
          "internalType": "uint256",
          "name": "value",
          "type": "uint256"
        }
      ],
      "name": "Approval",
      "type": "event"
    },
    {
      "anonymous": false,
      "inputs": [
        {
          "indexed": false,
          "internalType": "address",
          "name": "account",
          "type": "address"
        }
      ],
      "name": "Paused",
      "type": "event"
    },
    {
      "anonymous": false,
      "inputs": [
        {
          "indexed": true,
          "internalType": "bytes32",
          "name": "role",
          "type": "bytes32"
        },
        {
          "indexed": true,
          "internalType": "bytes32",
          "name": "previousAdminRole",
          "type": "bytes32"
        },
        {
          "indexed": true,
          "internalType": "bytes32",
          "name": "newAdminRole",
          "type": "bytes32"
        }
      ],
      "name": "RoleAdminChanged",
      "type": "event"
    },
    {
      "anonymous": false,
      "inputs": [
        {
          "indexed": true,
          "internalType": "bytes32",
          "name": "role",
          "type": "bytes32"
        },
        {
          "indexed": true,
          "internalType": "address",
          "name": "account",
          "type": "address"
        },
        {
          "indexed": true,
          "internalType": "address",
          "name": "sender",
          "type": "address"
        }
      ],
      "name": "RoleGranted",
      "type": "event"
    },
    {
      "anonymous": false,
      "inputs": [
        {
          "indexed": true,
          "internalType": "bytes32",
          "name": "role",
          "type": "bytes32"
        },
        {
          "indexed": true,
          "internalType": "address",
          "name": "account",
          "type": "address"
        },
        {
          "indexed": true,
          "internalType": "address",
          "name": "sender",
          "type": "address"
        }
      ],
      "name": "RoleRevoked",
      "type": "event"
    },
    {
      "anonymous": false,
      "inputs": [
        {
          "indexed": true,
          "internalType": "address",
          "name": "from",
          "type": "address"
        },
        {
          "indexed": true,
          "internalType": "address",
          "name": "to",
          "type": "address"
        },
        {
          "indexed": false,
          "internalType": "uint256",
          "name": "value",
          "type": "uint256"
        }
      ],
      "name": "Transfer",
      "type": "event"
    },
    {
      "anonymous": false,
      "inputs": [
        {
          "indexed": false,
          "internalType": "address",
          "name": "account",
          "type": "address"
        }
      ],
      "name": "Unpaused",
      "type": "event"
    },
    {
      "inputs": [],
      "name": "DEFAULT_ADMIN_ROLE",
      "outputs": [
        {
          "internalType": "bytes32",
          "name": "",
          "type": "bytes32"
        }
      ],
      "stateMutability": "view",
      "type": "function",
      "constant": true
    },
    {
      "inputs": [],
      "name": "DOMAIN_SEPARATOR",
      "outputs": [
        {
          "internalType": "bytes32",
          "name": "",
          "type": "bytes32"
        }
      ],
      "stateMutability": "view",
      "type": "function",
      "constant": true
    },
    {
      "inputs": [],
      "name": "MINTER_ROLE",
      "outputs": [
        {
          "internalType": "bytes32",
          "name": "",
          "type": "bytes32"
        }
      ],
      "stateMutability": "view",
      "type": "function",
      "constant": true
    },
    {
      "inputs": [],
      "name": "PAUSER_ROLE",
      "outputs": [
        {
          "internalType": "bytes32",
          "name": "",
          "type": "bytes32"
        }
      ],
      "stateMutability": "view",
      "type": "function",
      "constant": true
    },
    {
      "inputs": [
        {
          "internalType": "address",
          "name": "owner",
          "type": "address"
        },
        {
          "internalType": "address",
          "name": "spender",
          "type": "address"
        }
      ],
      "name": "allowance",
      "outputs": [
        {
          "internalType": "uint256",
          "name": "",
          "type": "uint256"
        }
      ],
      "stateMutability": "view",
      "type": "function",
      "constant": true
    },
    {
      "inputs": [
        {
          "internalType": "address",
          "name": "spender",
          "type": "address"
        },
        {
          "internalType": "uint256",
          "name": "amount",
          "type": "uint256"
        }
      ],
      "name": "approve",
      "outputs": [
        {
          "internalType": "bool",
          "name": "",
          "type": "bool"
        }
      ],
      "stateMutability": "nonpayable",
      "type": "function"
    },
    {
      "inputs": [
        {
          "internalType": "address",
          "name": "account",
          "type": "address"
        }
      ],
      "name": "balanceOf",
      "outputs": [
        {
          "internalType": "uint256",
          "name": "",
          "type": "uint256"
        }
      ],
      "stateMutability": "view",
      "type": "function",
      "constant": true
    },
    {
      "inputs": [],
      "name": "decimals",
      "outputs": [
        {
          "internalType": "uint8",
          "name": "",
          "type": "uint8"
        }
      ],
      "stateMutability": "view",
      "type": "function",
      "constant": true
    },
    {
      "inputs": [
        {
          "internalType": "address",
          "name": "spender",
          "type": "address"
        },
        {
          "internalType": "uint256",
          "name": "subtractedValue",
          "type": "uint256"
        }
      ],
      "name": "decreaseAllowance",
      "outputs": [
        {
          "internalType": "bool",
          "name": "",
          "type": "bool"
        }
      ],
      "stateMutability": "nonpayable",
      "type": "function"
    },
    {
      "inputs": [
        {
          "internalType": "address",
          "name": "token",
          "type": "address"
        },
        {
          "internalType": "uint256",
          "name": "amount",
          "type": "uint256"
        }
      ],
      "name": "flashFee",
      "outputs": [
        {
          "internalType": "uint256",
          "name": "",
          "type": "uint256"
        }
      ],
      "stateMutability": "view",
      "type": "function",
      "constant": true
    },
    {
      "inputs": [
        {
          "internalType": "contract IERC3156FlashBorrower",
          "name": "receiver",
          "type": "address"
        },
        {
          "internalType": "address",
          "name": "token",
          "type": "address"
        },
        {
          "internalType": "uint256",
          "name": "amount",
          "type": "uint256"
        },
        {
          "internalType": "bytes",
          "name": "data",
          "type": "bytes"
        }
      ],
      "name": "flashLoan",
      "outputs": [
        {
          "internalType": "bool",
          "name": "",
          "type": "bool"
        }
      ],
      "stateMutability": "nonpayable",
      "type": "function"
    },
    {
      "inputs": [
        {
          "internalType": "bytes32",
          "name": "role",
          "type": "bytes32"
        }
      ],
      "name": "getRoleAdmin",
      "outputs": [
        {
          "internalType": "bytes32",
          "name": "",
          "type": "bytes32"
        }
      ],
      "stateMutability": "view",
      "type": "function",
      "constant": true
    },
    {
      "inputs": [
        {
          "internalType": "bytes32",
          "name": "role",
          "type": "bytes32"
        },
        {
          "internalType": "address",
          "name": "account",
          "type": "address"
        }
      ],
      "name": "grantRole",
      "outputs": [],
      "stateMutability": "nonpayable",
      "type": "function"
    },
    {
      "inputs": [
        {
          "internalType": "bytes32",
          "name": "role",
          "type": "bytes32"
        },
        {
          "internalType": "address",
          "name": "account",
          "type": "address"
        }
      ],
      "name": "hasRole",
      "outputs": [
        {
          "internalType": "bool",
          "name": "",
          "type": "bool"
        }
      ],
      "stateMutability": "view",
      "type": "function",
      "constant": true
    },
    {
      "inputs": [
        {
          "internalType": "address",
          "name": "spender",
          "type": "address"
        },
        {
          "internalType": "uint256",
          "name": "addedValue",
          "type": "uint256"
        }
      ],
      "name": "increaseAllowance",
      "outputs": [
        {
          "internalType": "bool",
          "name": "",
          "type": "bool"
        }
      ],
      "stateMutability": "nonpayable",
      "type": "function"
    },
    {
      "inputs": [
        {
          "internalType": "address",
          "name": "token",
          "type": "address"
        }
      ],
      "name": "maxFlashLoan",
      "outputs": [
        {
          "internalType": "uint256",
          "name": "",
          "type": "uint256"
        }
      ],
      "stateMutability": "view",
      "type": "function",
      "constant": true
    },
    {
      "inputs": [],
      "name": "name",
      "outputs": [
        {
          "internalType": "string",
          "name": "",
          "type": "string"
        }
      ],
      "stateMutability": "view",
      "type": "function",
      "constant": true
    },
    {
      "inputs": [
        {
          "internalType": "address",
          "name": "owner",
          "type": "address"
        }
      ],
      "name": "nonces",
      "outputs": [
        {
          "internalType": "uint256",
          "name": "",
          "type": "uint256"
        }
      ],
      "stateMutability": "view",
      "type": "function",
      "constant": true
    },
    {
      "inputs": [],
      "name": "paused",
      "outputs": [
        {
          "internalType": "bool",
          "name": "",
          "type": "bool"
        }
      ],
      "stateMutability": "view",
      "type": "function",
      "constant": true
    },
    {
      "inputs": [
        {
          "internalType": "address",
          "name": "owner",
          "type": "address"
        },
        {
          "internalType": "address",
          "name": "spender",
          "type": "address"
        },
        {
          "internalType": "uint256",
          "name": "value",
          "type": "uint256"
        },
        {
          "internalType": "uint256",
          "name": "deadline",
          "type": "uint256"
        },
        {
          "internalType": "uint8",
          "name": "v",
          "type": "uint8"
        },
        {
          "internalType": "bytes32",
          "name": "r",
          "type": "bytes32"
        },
        {
          "internalType": "bytes32",
          "name": "s",
          "type": "bytes32"
        }
      ],
      "name": "permit",
      "outputs": [],
      "stateMutability": "nonpayable",
      "type": "function"
    },
    {
      "inputs": [
        {
          "internalType": "bytes32",
          "name": "role",
          "type": "bytes32"
        },
        {
          "internalType": "address",
          "name": "account",
          "type": "address"
        }
      ],
      "name": "renounceRole",
      "outputs": [],
      "stateMutability": "nonpayable",
      "type": "function"
    },
    {
      "inputs": [
        {
          "internalType": "bytes32",
          "name": "role",
          "type": "bytes32"
        },
        {
          "internalType": "address",
          "name": "account",
          "type": "address"
        }
      ],
      "name": "revokeRole",
      "outputs": [],
      "stateMutability": "nonpayable",
      "type": "function"
    },
    {
      "inputs": [
        {
          "internalType": "bytes4",
          "name": "interfaceId",
          "type": "bytes4"
        }
      ],
      "name": "supportsInterface",
      "outputs": [
        {
          "internalType": "bool",
          "name": "",
          "type": "bool"
        }
      ],
      "stateMutability": "view",
      "type": "function",
      "constant": true
    },
    {
      "inputs": [],
      "name": "symbol",
      "outputs": [
        {
          "internalType": "string",
          "name": "",
          "type": "string"
        }
      ],
      "stateMutability": "view",
      "type": "function",
      "constant": true
    },
    {
      "inputs": [],
      "name": "totalSupply",
      "outputs": [
        {
          "internalType": "uint256",
          "name": "",
          "type": "uint256"
        }
      ],
      "stateMutability": "view",
      "type": "function",
      "constant": true
    },
    {
      "inputs": [
        {
          "internalType": "address",
          "name": "to",
          "type": "address"
        },
        {
          "internalType": "uint256",
          "name": "amount",
          "type": "uint256"
        }
      ],
      "name": "transfer",
      "outputs": [
        {
          "internalType": "bool",
          "name": "",
          "type": "bool"
        }
      ],
      "stateMutability": "nonpayable",
      "type": "function"
    },
    {
      "inputs": [
        {
          "internalType": "address",
          "name": "from",
          "type": "address"
        },
        {
          "internalType": "address",
          "name": "to",
          "type": "address"
        },
        {
          "internalType": "uint256",
          "name": "amount",
          "type": "uint256"
        }
      ],
      "name": "transferFrom",
      "outputs": [
        {
          "internalType": "bool",
          "name": "",
          "type": "bool"
        }
      ],
      "stateMutability": "nonpayable",
      "type": "function"
    },
    {
      "inputs": [],
      "name": "pause",
      "outputs": [],
      "stateMutability": "nonpayable",
      "type": "function"
    },
    {
      "inputs": [],
      "name": "unpause",
      "outputs": [],
      "stateMutability": "nonpayable",
      "type": "function"
    },
    {
      "inputs": [
        {
          "internalType": "address",
          "name": "to",
          "type": "address"
        },
        {
          "internalType": "uint256",
          "name": "amount",
          "type": "uint256"
        }
      ],
      "name": "mint",
      "outputs": [],
      "stateMutability": "nonpayable",
      "type": "function"
    }
  ],
  "bytecode": "0x6101406040523480156200001257600080fd5b506040518060400160405280600981526020017f50616e6461436f696e0000000000000000000000000000000000000000000000815250806040518060400160405280600181526020017f31000000000000000000000000000000000000000000000000000000000000008152506040518060400160405280600981526020017f50616e6461436f696e00000000000000000000000000000000000000000000008152506040518060400160405280600381526020017f50444300000000000000000000000000000000000000000000000000000000008152508160039081620000fd9190620008d2565b5080600490816200010f9190620008d2565b5050506000600560006101000a81548160ff02191690831515021790555060008280519060200120905060008280519060200120905060007f8b73c3c69bb8fe3d512ecc4cf759cc79239f7b179b0ffacaa9a75d522b39400f90508260e081815250508161010081815250504660a08181525050620001968184846200029e60201b60201c565b608081815250503073ffffffffffffffffffffffffffffffffffffffff1660c08173ffffffffffffffffffffffffffffffffffffffff1681525050806101208181525050505050505050620001f56000801b33620002da60201b60201c565b620002277f65d7a28e3265b37a6474929f336521b332c1681b933f6cb9f3376673440d862a33620002da60201b60201c565b62000266336200023c620003cc60201b60201c565b600a6200024a919062000b49565b629896806200025a919062000b9a565b620003d560201b60201c565b620002987f9f2df0fed2c77648de5860a4cc508cd0818c85b8b8a1ab4ceeef8d981c8956a633620002da60201b60201c565b62000e00565b60008383834630604051602001620002bb95949392919062000c56565b6040516020818303038152906040528051906020012090509392505050565b620002ec82826200054260201b60201c565b620003c85760016006600084815260200190815260200160002060000160008373ffffffffffffffffffffffffffffffffffffffff1673ffffffffffffffffffffffffffffffffffffffff16815260200190815260200160002060006101000a81548160ff0219169083151502179055506200036d620005ad60201b60201c565b73ffffffffffffffffffffffffffffffffffffffff168173ffffffffffffffffffffffffffffffffffffffff16837f2f8788117e7eff1d82e926ec794901d17c78024a50270940304540a733656f0d60405160405180910390a45b5050565b60006012905090565b600073ffffffffffffffffffffffffffffffffffffffff168273ffffffffffffffffffffffffffffffffffffffff160362000447576040517f08c379a00000000000000000000000000000000000000000000000000000000081526004016200043e9062000d14565b60405180910390fd5b6200045b60008383620005b560201b60201c565b80600260008282546200046f919062000d36565b92505081905550806000808473ffffffffffffffffffffffffffffffffffffffff1673ffffffffffffffffffffffffffffffffffffffff168152602001908152602001600020600082825401925050819055508173ffffffffffffffffffffffffffffffffffffffff16600073ffffffffffffffffffffffffffffffffffffffff167fddf252ad1be2c89b69c2b068fc378daa952ba7f163c4a11628f55a4df523b3ef8360405162000522919062000d71565b60405180910390a36200053e60008383620005e260201b60201c565b5050565b60006006600084815260200190815260200160002060000160008373ffffffffffffffffffffffffffffffffffffffff1673ffffffffffffffffffffffffffffffffffffffff16815260200190815260200160002060009054906101000a900460ff16905092915050565b600033905090565b620005c5620005e760201b60201c565b620005dd8383836200063c60201b620010b01760201c565b505050565b505050565b620005f76200064160201b60201c565b156200063a576040517f08c379a0000000000000000000000000000000000000000000000000000000008152600401620006319062000dde565b60405180910390fd5b565b505050565b6000600560009054906101000a900460ff16905090565b600081519050919050565b7f4e487b7100000000000000000000000000000000000000000000000000000000600052604160045260246000fd5b7f4e487b7100000000000000000000000000000000000000000000000000000000600052602260045260246000fd5b60006002820490506001821680620006da57607f821691505b602082108103620006f057620006ef62000692565b5b50919050565b60008190508160005260206000209050919050565b60006020601f8301049050919050565b600082821b905092915050565b6000600883026200075a7fffffffffffffffffffffffffffffffffffffffffffffffffffffffffffffffff826200071b565b6200076686836200071b565b95508019841693508086168417925050509392505050565b6000819050919050565b6000819050919050565b6000620007b3620007ad620007a7846200077e565b62000788565b6200077e565b9050919050565b6000819050919050565b620007cf8362000792565b620007e7620007de82620007ba565b84845462000728565b825550505050565b600090565b620007fe620007ef565b6200080b818484620007c4565b505050565b5b81811015620008335762000827600082620007f4565b60018101905062000811565b5050565b601f82111562000882576200084c81620006f6565b62000857846200070b565b8101602085101562000867578190505b6200087f62000876856200070b565b83018262000810565b50505b505050565b600082821c905092915050565b6000620008a76000198460080262000887565b1980831691505092915050565b6000620008c2838362000894565b9150826002028217905092915050565b620008dd8262000658565b67ffffffffffffffff811115620008f957620008f862000663565b5b620009058254620006c1565b6200091282828562000837565b600060209050601f8311600181146200094a576000841562000935578287015190505b620009418582620008b4565b865550620009b1565b601f1984166200095a86620006f6565b60005b8281101562000984578489015182556001820191506020850194506020810190506200095d565b86831015620009a45784890151620009a0601f89168262000894565b8355505b6001600288020188555050505b505050505050565b7f4e487b7100000000000000000000000000000000000000000000000000000000600052601160045260246000fd5b60008160011c9050919050565b6000808291508390505b600185111562000a475780860481111562000a1f5762000a1e620009b9565b5b600185161562000a2f5780820291505b808102905062000a3f85620009e8565b9450620009ff565b94509492505050565b60008262000a62576001905062000b35565b8162000a72576000905062000b35565b816001811462000a8b576002811462000a965762000acc565b600191505062000b35565b60ff84111562000aab5762000aaa620009b9565b5b8360020a91508482111562000ac55762000ac4620009b9565b5b5062000b35565b5060208310610133831016604e8410600b841016171562000b065782820a90508381111562000b005762000aff620009b9565b5b62000b35565b62000b158484846001620009f5565b9250905081840481111562000b2f5762000b2e620009b9565b5b81810290505b9392505050565b600060ff82169050919050565b600062000b56826200077e565b915062000b638362000b3c565b925062000b927fffffffffffffffffffffffffffffffffffffffffffffffffffffffffffffffff848462000a50565b905092915050565b600062000ba7826200077e565b915062000bb4836200077e565b925082820262000bc4816200077e565b9150828204841483151762000bde5762000bdd620009b9565b5b5092915050565b6000819050919050565b62000bfa8162000be5565b82525050565b62000c0b816200077e565b82525050565b600073ffffffffffffffffffffffffffffffffffffffff82169050919050565b600062000c3e8262000c11565b9050919050565b62000c508162000c31565b82525050565b600060a08201905062000c6d600083018862000bef565b62000c7c602083018762000bef565b62000c8b604083018662000bef565b62000c9a606083018562000c00565b62000ca9608083018462000c45565b9695505050505050565b600082825260208201905092915050565b7f45524332303a206d696e7420746f20746865207a65726f206164647265737300600082015250565b600062000cfc601f8362000cb3565b915062000d098262000cc4565b602082019050919050565b6000602082019050818103600083015262000d2f8162000ced565b9050919050565b600062000d43826200077e565b915062000d50836200077e565b925082820190508082111562000d6b5762000d6a620009b9565b5b92915050565b600060208201905062000d88600083018462000c00565b92915050565b7f5061757361626c653a2070617573656400000000000000000000000000000000600082015250565b600062000dc660108362000cb3565b915062000dd38262000d8e565b602082019050919050565b6000602082019050818103600083015262000df98162000db7565b9050919050565b60805160a05160c05160e0516101005161012051613b1a62000e506000396000611795015260006117d7015260006117b6015260006116eb015260006117410152600061176a0152613b1a6000f3fe608060405234801561001057600080fd5b50600436106101da5760003560e01c8063613255ab11610104578063a457c2d7116100a2578063d547741f11610071578063d547741f14610593578063d9d98ce4146105af578063dd62ed3e146105df578063e63ab1e91461060f576101da565b8063a457c2d7146104f9578063a9059cbb14610529578063d505accf14610559578063d539139314610575576101da565b80638456cb59116100de5780638456cb591461048357806391d148541461048d57806395d89b41146104bd578063a217fddf146104db576101da565b8063613255ab146103f357806370a08231146104235780637ecebe0014610453576101da565b8063313ce5671161017c5780633f4ba83a1161014b5780633f4ba83a1461037f57806340c10f19146103895780635c975abb146103a55780635cffe9de146103c3576101da565b8063313ce567146102f75780633644e5151461031557806336568abe14610333578063395093511461034f576101da565b806318160ddd116101b857806318160ddd1461025d57806323b872dd1461027b578063248a9ca3146102ab5780632f2ff15d146102db576101da565b806301ffc9a7146101df57806306fdde031461020f578063095ea7b31461022d575b600080fd5b6101f960048036038101906101f49190612455565b61062d565b604051610206919061249d565b60405180910390f35b6102176106a7565b6040516102249190612548565b60405180910390f35b610247600480360381019061024291906125fe565b610739565b604051610254919061249d565b60405180910390f35b61026561075c565b604051610272919061264d565b60405180910390f35b61029560048036038101906102909190612668565b610766565b6040516102a2919061249d565b60405180910390f35b6102c560048036038101906102c091906126f1565b610795565b6040516102d2919061272d565b60405180910390f35b6102f560048036038101906102f09190612748565b6107b5565b005b6102ff6107d6565b60405161030c91906127a4565b60405180910390f35b61031d6107df565b60405161032a919061272d565b60405180910390f35b61034d60048036038101906103489190612748565b6107ee565b005b610369600480360381019061036491906125fe565b610871565b604051610376919061249d565b60405180910390f35b6103876108a8565b005b6103a3600480360381019061039e91906125fe565b6108dd565b005b6103ad610916565b6040516103ba919061249d565b60405180910390f35b6103dd60048036038101906103d89190612862565b61092d565b6040516103ea919061249d565b60405180910390f35b61040d600480360381019061040891906128ea565b610b1a565b60405161041a919061264d565b60405180910390f35b61043d600480360381019061043891906128ea565b610b91565b60405161044a919061264d565b60405180910390f35b61046d600480360381019061046891906128ea565b610bd9565b60405161047a919061264d565b60405180910390f35b61048b610c29565b005b6104a760048036038101906104a29190612748565b610c5e565b6040516104b4919061249d565b60405180910390f35b6104c5610cc9565b6040516104d29190612548565b60405180910390f35b6104e3610d5b565b6040516104f0919061272d565b60405180910390f35b610513600480360381019061050e91906125fe565b610d62565b604051610520919061249d565b60405180910390f35b610543600480360381019061053e91906125fe565b610dd9565b604051610550919061249d565b60405180910390f35b610573600480360381019061056e9190612943565b610dfc565b005b61057d610f3e565b60405161058a919061272d565b60405180910390f35b6105ad60048036038101906105a89190612748565b610f62565b005b6105c960048036038101906105c491906125fe565b610f83565b6040516105d6919061264d565b60405180910390f35b6105f960048036038101906105f491906129e5565b611005565b604051610606919061264d565b60405180910390f35b61061761108c565b604051610624919061272d565b60405180910390f35b60007f7965db0b000000000000000000000000000000000000000000000000000000007bffffffffffffffffffffffffffffffffffffffffffffffffffffffff1916827bffffffffffffffffffffffffffffffffffffffffffffffffffffffff191614806106a0575061069f826110b5565b5b9050919050565b6060600380546106b690612a54565b80601f01602080910402602001604051908101604052809291908181526020018280546106e290612a54565b801561072f5780601f106107045761010080835404028352916020019161072f565b820191906000526020600020905b81548152906001019060200180831161071257829003601f168201915b5050505050905090565b60008061074461111f565b9050610751818585611127565b600191505092915050565b6000600254905090565b60008061077161111f565b905061077e8582856112f0565b61078985858561137c565b60019150509392505050565b600060066000838152602001908152602001600020600101549050919050565b6107be82610795565b6107c7816115f2565b6107d18383611606565b505050565b60006012905090565b60006107e96116e7565b905090565b6107f661111f565b73ffffffffffffffffffffffffffffffffffffffff168173ffffffffffffffffffffffffffffffffffffffff1614610863576040517f08c379a000000000000000000000000000000000000000000000000000000000815260040161085a90612af7565b60405180910390fd5b61086d8282611801565b5050565b60008061087c61111f565b905061089d81858561088e8589611005565b6108989190612b46565b611127565b600191505092915050565b7f65d7a28e3265b37a6474929f336521b332c1681b933f6cb9f3376673440d862a6108d2816115f2565b6108da6118e3565b50565b7f9f2df0fed2c77648de5860a4cc508cd0818c85b8b8a1ab4ceeef8d981c8956a6610907816115f2565b6109118383611946565b505050565b6000600560009054906101000a900460ff16905090565b600061093885610b1a565b84111561097a576040517f08c379a000000000000000000000000000000000000000000000000000000000815260040161097190612bec565b60405180910390fd5b60006109868686610f83565b90506109928786611946565b7f439148f0bbc682ca079e46d6e2c2f0c1e3b820f1a291b069d8882abf8cf18dd98773ffffffffffffffffffffffffffffffffffffffff166323e30c8b338989868a8a6040518763ffffffff1660e01b81526004016109f696959493929190612c68565b6020604051808303816000875af1158015610a15573d6000803e3d6000fd5b505050506040513d601f19601f82011682018060405250810190610a399190612cd9565b14610a79576040517f08c379a0000000000000000000000000000000000000000000000000000000008152600401610a7090612d78565b60405180910390fd5b6000610a83611a9c565b9050610a9b88308489610a969190612b46565b6112f0565b6000821480610ad65750600073ffffffffffffffffffffffffffffffffffffffff168173ffffffffffffffffffffffffffffffffffffffff16145b15610af557610af0888388610aeb9190612b46565b611aa1565b610b0b565b610aff8887611aa1565b610b0a88828461137c565b5b60019250505095945050505050565b60003073ffffffffffffffffffffffffffffffffffffffff168273ffffffffffffffffffffffffffffffffffffffff1614610b56576000610b8a565b610b5e61075c565b7fffffffffffffffffffffffffffffffffffffffffffffffffffffffffffffffff610b899190612d98565b5b9050919050565b60008060008373ffffffffffffffffffffffffffffffffffffffff1673ffffffffffffffffffffffffffffffffffffffff168152602001908152602001600020549050919050565b6000610c22600760008473ffffffffffffffffffffffffffffffffffffffff1673ffffffffffffffffffffffffffffffffffffffff168152602001908152602001600020611c6e565b9050919050565b7f65d7a28e3265b37a6474929f336521b332c1681b933f6cb9f3376673440d862a610c53816115f2565b610c5b611c7c565b50565b60006006600084815260200190815260200160002060000160008373ffffffffffffffffffffffffffffffffffffffff1673ffffffffffffffffffffffffffffffffffffffff16815260200190815260200160002060009054906101000a900460ff16905092915050565b606060048054610cd890612a54565b80601f0160208091040260200160405190810160405280929190818152602001828054610d0490612a54565b8015610d515780601f10610d2657610100808354040283529160200191610d51565b820191906000526020600020905b815481529060010190602001808311610d3457829003601f168201915b5050505050905090565b6000801b81565b600080610d6d61111f565b90506000610d7b8286611005565b905083811015610dc0576040517f08c379a0000000000000000000000000000000000000000000000000000000008152600401610db790612e3e565b60405180910390fd5b610dcd8286868403611127565b60019250505092915050565b600080610de461111f565b9050610df181858561137c565b600191505092915050565b83421115610e3f576040517f08c379a0000000000000000000000000000000000000000000000000000000008152600401610e3690612eaa565b60405180910390fd5b60007f6e71edae12b1b97f4d1f60370fef10105fa2faae0126114a169c64845d6126c9888888610e6e8c611cdf565b89604051602001610e8496959493929190612eca565b6040516020818303038152906040528051906020012090506000610ea782611d3d565b90506000610eb782878787611d57565b90508973ffffffffffffffffffffffffffffffffffffffff168173ffffffffffffffffffffffffffffffffffffffff1614610f27576040517f08c379a0000000000000000000000000000000000000000000000000000000008152600401610f1e90612f77565b60405180910390fd5b610f328a8a8a611127565b50505050505050505050565b7f9f2df0fed2c77648de5860a4cc508cd0818c85b8b8a1ab4ceeef8d981c8956a681565b610f6b82610795565b610f74816115f2565b610f7e8383611801565b505050565b60003073ffffffffffffffffffffffffffffffffffffffff168373ffffffffffffffffffffffffffffffffffffffff1614610ff3576040517f08c379a0000000000000000000000000000000000000000000000000000000008152600401610fea90612fe3565b60405180910390fd5b610ffd8383611d82565b905092915050565b6000600160008473ffffffffffffffffffffffffffffffffffffffff1673ffffffffffffffffffffffffffffffffffffffff16815260200190815260200160002060008373ffffffffffffffffffffffffffffffffffffffff1673ffffffffffffffffffffffffffffffffffffffff16815260200190815260200160002054905092915050565b7f65d7a28e3265b37a6474929f336521b332c1681b933f6cb9f3376673440d862a81565b505050565b60007f01ffc9a7000000000000000000000000000000000000000000000000000000007bffffffffffffffffffffffffffffffffffffffffffffffffffffffff1916827bffffffffffffffffffffffffffffffffffffffffffffffffffffffff1916149050919050565b600033905090565b600073ffffffffffffffffffffffffffffffffffffffff168373ffffffffffffffffffffffffffffffffffffffff1603611196576040517f08c379a000000000000000000000000000000000000000000000000000000000815260040161118d90613075565b60405180910390fd5b600073ffffffffffffffffffffffffffffffffffffffff168273ffffffffffffffffffffffffffffffffffffffff1603611205576040517f08c379a00000000000000000000000000000000000000000000000000000000081526004016111fc90613107565b60405180910390fd5b80600160008573ffffffffffffffffffffffffffffffffffffffff1673ffffffffffffffffffffffffffffffffffffffff16815260200190815260200160002060008473ffffffffffffffffffffffffffffffffffffffff1673ffffffffffffffffffffffffffffffffffffffff168152602001908152602001600020819055508173ffffffffffffffffffffffffffffffffffffffff168373ffffffffffffffffffffffffffffffffffffffff167f8c5be1e5ebec7d5bd14f71427d1e84f3dd0314c0f7b2291e5b200ac8c7c3b925836040516112e3919061264d565b60405180910390a3505050565b60006112fc8484611005565b90507fffffffffffffffffffffffffffffffffffffffffffffffffffffffffffffffff81146113765781811015611368576040517f08c379a000000000000000000000000000000000000000000000000000000000815260040161135f90613173565b60405180910390fd5b6113758484848403611127565b5b50505050565b600073ffffffffffffffffffffffffffffffffffffffff168373ffffffffffffffffffffffffffffffffffffffff16036113eb576040517f08c379a00000000000000000000000000000000000000000000000000000000081526004016113e290613205565b60405180910390fd5b600073ffffffffffffffffffffffffffffffffffffffff168273ffffffffffffffffffffffffffffffffffffffff160361145a576040517f08c379a000000000000000000000000000000000000000000000000000000000815260040161145190613297565b60405180910390fd5b611465838383611d8a565b60008060008573ffffffffffffffffffffffffffffffffffffffff1673ffffffffffffffffffffffffffffffffffffffff168152602001908152602001600020549050818110156114eb576040517f08c379a00000000000000000000000000000000000000000000000000000000081526004016114e290613329565b60405180910390fd5b8181036000808673ffffffffffffffffffffffffffffffffffffffff1673ffffffffffffffffffffffffffffffffffffffff16815260200190815260200160002081905550816000808573ffffffffffffffffffffffffffffffffffffffff1673ffffffffffffffffffffffffffffffffffffffff168152602001908152602001600020600082825401925050819055508273ffffffffffffffffffffffffffffffffffffffff168473ffffffffffffffffffffffffffffffffffffffff167fddf252ad1be2c89b69c2b068fc378daa952ba7f163c4a11628f55a4df523b3ef846040516115d9919061264d565b60405180910390a36115ec848484611da2565b50505050565b611603816115fe61111f565b611da7565b50565b6116108282610c5e565b6116e35760016006600084815260200190815260200160002060000160008373ffffffffffffffffffffffffffffffffffffffff1673ffffffffffffffffffffffffffffffffffffffff16815260200190815260200160002060006101000a81548160ff02191690831515021790555061168861111f565b73ffffffffffffffffffffffffffffffffffffffff168173ffffffffffffffffffffffffffffffffffffffff16837f2f8788117e7eff1d82e926ec794901d17c78024a50270940304540a733656f0d60405160405180910390a45b5050565b60007f000000000000000000000000000000000000000000000000000000000000000073ffffffffffffffffffffffffffffffffffffffff163073ffffffffffffffffffffffffffffffffffffffff1614801561176357507f000000000000000000000000000000000000000000000000000000000000000046145b15611790577f000000000000000000000000000000000000000000000000000000000000000090506117fe565b6117fb7f00000000000000000000000000000000000000000000000000000000000000007f00000000000000000000000000000000000000000000000000000000000000007f0000000000000000000000000000000000000000000000000000000000000000611e2c565b90505b90565b61180b8282610c5e565b156118df5760006006600084815260200190815260200160002060000160008373ffffffffffffffffffffffffffffffffffffffff1673ffffffffffffffffffffffffffffffffffffffff16815260200190815260200160002060006101000a81548160ff02191690831515021790555061188461111f565b73ffffffffffffffffffffffffffffffffffffffff168173ffffffffffffffffffffffffffffffffffffffff16837ff6391f5c32d9c69d2a47ea670b442974b53935d1edc7fd64eb21e047a839171b60405160405180910390a45b5050565b6118eb611e66565b6000600560006101000a81548160ff0219169083151502179055507f5db9ee0a495bf2e6ff9c91a7834c1ba4fdd244a5e8aa4e537bd38aeae4b073aa61192f61111f565b60405161193c9190613349565b60405180910390a1565b600073ffffffffffffffffffffffffffffffffffffffff168273ffffffffffffffffffffffffffffffffffffffff16036119b5576040517f08c379a00000000000000000000000000000000000000000000000000000000081526004016119ac906133b0565b60405180910390fd5b6119c160008383611d8a565b80600260008282546119d39190612b46565b92505081905550806000808473ffffffffffffffffffffffffffffffffffffffff1673ffffffffffffffffffffffffffffffffffffffff168152602001908152602001600020600082825401925050819055508173ffffffffffffffffffffffffffffffffffffffff16600073ffffffffffffffffffffffffffffffffffffffff167fddf252ad1be2c89b69c2b068fc378daa952ba7f163c4a11628f55a4df523b3ef83604051611a84919061264d565b60405180910390a3611a9860008383611da2565b5050565b600090565b600073ffffffffffffffffffffffffffffffffffffffff168273ffffffffffffffffffffffffffffffffffffffff1603611b10576040517f08c379a0000000000000000000000000000000000000000000000000000000008152600401611b0790613442565b60405180910390fd5b611b1c82600083611d8a565b60008060008473ffffffffffffffffffffffffffffffffffffffff1673ffffffffffffffffffffffffffffffffffffffff16815260200190815260200160002054905081811015611ba2576040517f08c379a0000000000000000000000000000000000000000000000000000000008152600401611b99906134d4565b60405180910390fd5b8181036000808573ffffffffffffffffffffffffffffffffffffffff1673ffffffffffffffffffffffffffffffffffffffff1681526020019081526020016000208190555081600260008282540392505081905550600073ffffffffffffffffffffffffffffffffffffffff168373ffffffffffffffffffffffffffffffffffffffff167fddf252ad1be2c89b69c2b068fc378daa952ba7f163c4a11628f55a4df523b3ef84604051611c55919061264d565b60405180910390a3611c6983600084611da2565b505050565b600081600001549050919050565b611c84611eaf565b6001600560006101000a81548160ff0219169083151502179055507f62e78cea01bee320cd4e420270b5ea74000d11b0c9f74754ebdbfc544b05a258611cc861111f565b604051611cd59190613349565b60405180910390a1565b600080600760008473ffffffffffffffffffffffffffffffffffffffff1673ffffffffffffffffffffffffffffffffffffffff1681526020019081526020016000209050611d2c81611c6e565b9150611d3781611ef9565b50919050565b6000611d50611d4a6116e7565b83611f0f565b9050919050565b6000806000611d6887878787611f42565b91509150611d7581612024565b8192505050949350505050565b600092915050565b611d92611eaf565b611d9d8383836110b0565b505050565b505050565b611db18282610c5e565b611e2857611dbe8161218a565b611dcc8360001c60206121b7565b604051602001611ddd9291906135c8565b6040516020818303038152906040526040517f08c379a0000000000000000000000000000000000000000000000000000000008152600401611e1f9190612548565b60405180910390fd5b5050565b60008383834630604051602001611e47959493929190613602565b6040516020818303038152906040528051906020012090509392505050565b611e6e610916565b611ead576040517f08c379a0000000000000000000000000000000000000000000000000000000008152600401611ea4906136a1565b60405180910390fd5b565b611eb7610916565b15611ef7576040517f08c379a0000000000000000000000000000000000000000000000000000000008152600401611eee9061370d565b60405180910390fd5b565b6001816000016000828254019250508190555050565b60008282604051602001611f2492919061379a565b60405160208183030381529060405280519060200120905092915050565b6000807f7fffffffffffffffffffffffffffffff5d576e7357a4501ddfe92f46681b20a08360001c1115611f7d57600060039150915061201b565b600060018787878760405160008152602001604052604051611fa294939291906137d1565b6020604051602081039080840390855afa158015611fc4573d6000803e3d6000fd5b505050602060405103519050600073ffffffffffffffffffffffffffffffffffffffff168173ffffffffffffffffffffffffffffffffffffffff16036120125760006001925092505061201b565b80600092509250505b94509492505050565b6000600481111561203857612037613816565b5b81600481111561204b5761204a613816565b5b0315612187576001600481111561206557612064613816565b5b81600481111561207857612077613816565b5b036120b8576040517f08c379a00000000000000000000000000000000000000000000000000000000081526004016120af90613891565b60405180910390fd5b600260048111156120cc576120cb613816565b5b8160048111156120df576120de613816565b5b0361211f576040517f08c379a0000000000000000000000000000000000000000000000000000000008152600401612116906138fd565b60405180910390fd5b6003600481111561213357612132613816565b5b81600481111561214657612145613816565b5b03612186576040517f08c379a000000000000000000000000000000000000000000000000000000000815260040161217d9061398f565b60405180910390fd5b5b50565b60606121b08273ffffffffffffffffffffffffffffffffffffffff16601460ff166121b7565b9050919050565b6060600060028360026121ca91906139af565b6121d49190612b46565b67ffffffffffffffff8111156121ed576121ec6139f1565b5b6040519080825280601f01601f19166020018201604052801561221f5781602001600182028036833780820191505090505b5090507f30000000000000000000000000000000000000000000000000000000000000008160008151811061225757612256613a20565b5b60200101907effffffffffffffffffffffffffffffffffffffffffffffffffffffffffffff1916908160001a9053507f7800000000000000000000000000000000000000000000000000000000000000816001815181106122bb576122ba613a20565b5b60200101907effffffffffffffffffffffffffffffffffffffffffffffffffffffffffffff1916908160001a905350600060018460026122fb91906139af565b6123059190612b46565b90505b60018111156123a5577f3031323334353637383961626364656600000000000000000000000000000000600f86166010811061234757612346613a20565b5b1a60f81b82828151811061235e5761235d613a20565b5b60200101907effffffffffffffffffffffffffffffffffffffffffffffffffffffffffffff1916908160001a905350600485901c94508061239e90613a4f565b9050612308565b50600084146123e9576040517f08c379a00000000000000000000000000000000000000000000000000000000081526004016123e090613ac4565b60405180910390fd5b8091505092915050565b600080fd5b600080fd5b60007fffffffff0000000000000000000000000000000000000000000000000000000082169050919050565b612432816123fd565b811461243d57600080fd5b50565b60008135905061244f81612429565b92915050565b60006020828403121561246b5761246a6123f3565b5b600061247984828501612440565b91505092915050565b60008115159050919050565b61249781612482565b82525050565b60006020820190506124b2600083018461248e565b92915050565b600081519050919050565b600082825260208201905092915050565b60005b838110156124f25780820151818401526020810190506124d7565b60008484015250505050565b6000601f19601f8301169050919050565b600061251a826124b8565b61252481856124c3565b93506125348185602086016124d4565b61253d816124fe565b840191505092915050565b60006020820190508181036000830152612562818461250f565b905092915050565b600073ffffffffffffffffffffffffffffffffffffffff82169050919050565b60006125958261256a565b9050919050565b6125a58161258a565b81146125b057600080fd5b50565b6000813590506125c28161259c565b92915050565b6000819050919050565b6125db816125c8565b81146125e657600080fd5b50565b6000813590506125f8816125d2565b92915050565b60008060408385031215612615576126146123f3565b5b6000612623858286016125b3565b9250506020612634858286016125e9565b9150509250929050565b612647816125c8565b82525050565b6000602082019050612662600083018461263e565b92915050565b600080600060608486031215612681576126806123f3565b5b600061268f868287016125b3565b93505060206126a0868287016125b3565b92505060406126b1868287016125e9565b9150509250925092565b6000819050919050565b6126ce816126bb565b81146126d957600080fd5b50565b6000813590506126eb816126c5565b92915050565b600060208284031215612707576127066123f3565b5b6000612715848285016126dc565b91505092915050565b612727816126bb565b82525050565b6000602082019050612742600083018461271e565b92915050565b6000806040838503121561275f5761275e6123f3565b5b600061276d858286016126dc565b925050602061277e858286016125b3565b9150509250929050565b600060ff82169050919050565b61279e81612788565b82525050565b60006020820190506127b96000830184612795565b92915050565b60006127ca8261258a565b9050919050565b6127da816127bf565b81146127e557600080fd5b50565b6000813590506127f7816127d1565b92915050565b600080fd5b600080fd5b600080fd5b60008083601f840112612822576128216127fd565b5b8235905067ffffffffffffffff81111561283f5761283e612802565b5b60208301915083600182028301111561285b5761285a612807565b5b9250929050565b60008060008060006080868803121561287e5761287d6123f3565b5b600061288c888289016127e8565b955050602061289d888289016125b3565b94505060406128ae888289016125e9565b935050606086013567ffffffffffffffff8111156128cf576128ce6123f8565b5b6128db8882890161280c565b92509250509295509295909350565b600060208284031215612900576128ff6123f3565b5b600061290e848285016125b3565b91505092915050565b61292081612788565b811461292b57600080fd5b50565b60008135905061293d81612917565b92915050565b600080600080600080600060e0888a031215612962576129616123f3565b5b60006129708a828b016125b3565b97505060206129818a828b016125b3565b96505060406129928a828b016125e9565b95505060606129a38a828b016125e9565b94505060806129b48a828b0161292e565b93505060a06129c58a828b016126dc565b92505060c06129d68a828b016126dc565b91505092959891949750929550565b600080604083850312156129fc576129fb6123f3565b5b6000612a0a858286016125b3565b9250506020612a1b858286016125b3565b9150509250929050565b7f4e487b7100000000000000000000000000000000000000000000000000000000600052602260045260246000fd5b60006002820490506001821680612a6c57607f821691505b602082108103612a7f57612a7e612a25565b5b50919050565b7f416363657373436f6e74726f6c3a2063616e206f6e6c792072656e6f756e636560008201527f20726f6c657320666f722073656c660000000000000000000000000000000000602082015250565b6000612ae1602f836124c3565b9150612aec82612a85565b604082019050919050565b60006020820190508181036000830152612b1081612ad4565b9050919050565b7f4e487b7100000000000000000000000000000000000000000000000000000000600052601160045260246000fd5b6000612b51826125c8565b9150612b5c836125c8565b9250828201905080821115612b7457612b73612b17565b5b92915050565b7f4552433230466c6173684d696e743a20616d6f756e742065786365656473206d60008201527f6178466c6173684c6f616e000000000000000000000000000000000000000000602082015250565b6000612bd6602b836124c3565b9150612be182612b7a565b604082019050919050565b60006020820190508181036000830152612c0581612bc9565b9050919050565b612c158161258a565b82525050565b600082825260208201905092915050565b82818337600083830152505050565b6000612c478385612c1b565b9350612c54838584612c2c565b612c5d836124fe565b840190509392505050565b600060a082019050612c7d6000830189612c0c565b612c8a6020830188612c0c565b612c97604083018761263e565b612ca4606083018661263e565b8181036080830152612cb7818486612c3b565b9050979650505050505050565b600081519050612cd3816126c5565b92915050565b600060208284031215612cef57612cee6123f3565b5b6000612cfd84828501612cc4565b91505092915050565b7f4552433230466c6173684d696e743a20696e76616c69642072657475726e207660008201527f616c756500000000000000000000000000000000000000000000000000000000602082015250565b6000612d626024836124c3565b9150612d6d82612d06565b604082019050919050565b60006020820190508181036000830152612d9181612d55565b9050919050565b6000612da3826125c8565b9150612dae836125c8565b9250828203905081811115612dc657612dc5612b17565b5b92915050565b7f45524332303a2064656372656173656420616c6c6f77616e63652062656c6f7760008201527f207a65726f000000000000000000000000000000000000000000000000000000602082015250565b6000612e286025836124c3565b9150612e3382612dcc565b604082019050919050565b60006020820190508181036000830152612e5781612e1b565b9050919050565b7f45524332305065726d69743a206578706972656420646561646c696e65000000600082015250565b6000612e94601d836124c3565b9150612e9f82612e5e565b602082019050919050565b60006020820190508181036000830152612ec381612e87565b9050919050565b600060c082019050612edf600083018961271e565b612eec6020830188612c0c565b612ef96040830187612c0c565b612f06606083018661263e565b612f13608083018561263e565b612f2060a083018461263e565b979650505050505050565b7f45524332305065726d69743a20696e76616c6964207369676e61747572650000600082015250565b6000612f61601e836124c3565b9150612f6c82612f2b565b602082019050919050565b60006020820190508181036000830152612f9081612f54565b9050919050565b7f4552433230466c6173684d696e743a2077726f6e6720746f6b656e0000000000600082015250565b6000612fcd601b836124c3565b9150612fd882612f97565b602082019050919050565b60006020820190508181036000830152612ffc81612fc0565b9050919050565b7f45524332303a20617070726f76652066726f6d20746865207a65726f2061646460008201527f7265737300000000000000000000000000000000000000000000000000000000602082015250565b600061305f6024836124c3565b915061306a82613003565b604082019050919050565b6000602082019050818103600083015261308e81613052565b9050919050565b7f45524332303a20617070726f766520746f20746865207a65726f20616464726560008201527f7373000000000000000000000000000000000000000000000000000000000000602082015250565b60006130f16022836124c3565b91506130fc82613095565b604082019050919050565b60006020820190508181036000830152613120816130e4565b9050919050565b7f45524332303a20696e73756666696369656e7420616c6c6f77616e6365000000600082015250565b600061315d601d836124c3565b915061316882613127565b602082019050919050565b6000602082019050818103600083015261318c81613150565b9050919050565b7f45524332303a207472616e736665722066726f6d20746865207a65726f20616460008201527f6472657373000000000000000000000000000000000000000000000000000000602082015250565b60006131ef6025836124c3565b91506131fa82613193565b604082019050919050565b6000602082019050818103600083015261321e816131e2565b9050919050565b7f45524332303a207472616e7366657220746f20746865207a65726f206164647260008201527f6573730000000000000000000000000000000000000000000000000000000000602082015250565b60006132816023836124c3565b915061328c82613225565b604082019050919050565b600060208201905081810360008301526132b081613274565b9050919050565b7f45524332303a207472616e7366657220616d6f756e742065786365656473206260008201527f616c616e63650000000000000000000000000000000000000000000000000000602082015250565b60006133136026836124c3565b915061331e826132b7565b604082019050919050565b6000602082019050818103600083015261334281613306565b9050919050565b600060208201905061335e6000830184612c0c565b92915050565b7f45524332303a206d696e7420746f20746865207a65726f206164647265737300600082015250565b600061339a601f836124c3565b91506133a582613364565b602082019050919050565b600060208201905081810360008301526133c98161338d565b9050919050565b7f45524332303a206275726e2066726f6d20746865207a65726f2061646472657360008201527f7300000000000000000000000000000000000000000000000000000000000000602082015250565b600061342c6021836124c3565b9150613437826133d0565b604082019050919050565b6000602082019050818103600083015261345b8161341f565b9050919050565b7f45524332303a206275726e20616d6f756e7420657863656564732062616c616e60008201527f6365000000000000000000000000000000000000000000000000000000000000602082015250565b60006134be6022836124c3565b91506134c982613462565b604082019050919050565b600060208201905081810360008301526134ed816134b1565b9050919050565b600081905092915050565b7f416363657373436f6e74726f6c3a206163636f756e7420000000000000000000600082015250565b60006135356017836134f4565b9150613540826134ff565b601782019050919050565b6000613556826124b8565b61356081856134f4565b93506135708185602086016124d4565b80840191505092915050565b7f206973206d697373696e6720726f6c6520000000000000000000000000000000600082015250565b60006135b26011836134f4565b91506135bd8261357c565b601182019050919050565b60006135d382613528565b91506135df828561354b565b91506135ea826135a5565b91506135f6828461354b565b91508190509392505050565b600060a082019050613617600083018861271e565b613624602083018761271e565b613631604083018661271e565b61363e606083018561263e565b61364b6080830184612c0c565b9695505050505050565b7f5061757361626c653a206e6f7420706175736564000000000000000000000000600082015250565b600061368b6014836124c3565b915061369682613655565b602082019050919050565b600060208201905081810360008301526136ba8161367e565b9050919050565b7f5061757361626c653a2070617573656400000000000000000000000000000000600082015250565b60006136f76010836124c3565b9150613702826136c1565b602082019050919050565b60006020820190508181036000830152613726816136ea565b9050919050565b7f1901000000000000000000000000000000000000000000000000000000000000600082015250565b60006137636002836134f4565b915061376e8261372d565b600282019050919050565b6000819050919050565b61379461378f826126bb565b613779565b82525050565b60006137a582613756565b91506137b18285613783565b6020820191506137c18284613783565b6020820191508190509392505050565b60006080820190506137e6600083018761271e565b6137f36020830186612795565b613800604083018561271e565b61380d606083018461271e565b95945050505050565b7f4e487b7100000000000000000000000000000000000000000000000000000000600052602160045260246000fd5b7f45434453413a20696e76616c6964207369676e61747572650000000000000000600082015250565b600061387b6018836124c3565b915061388682613845565b602082019050919050565b600060208201905081810360008301526138aa8161386e565b9050919050565b7f45434453413a20696e76616c6964207369676e6174757265206c656e67746800600082015250565b60006138e7601f836124c3565b91506138f2826138b1565b602082019050919050565b60006020820190508181036000830152613916816138da565b9050919050565b7f45434453413a20696e76616c6964207369676e6174757265202773272076616c60008201527f7565000000000000000000000000000000000000000000000000000000000000602082015250565b60006139796022836124c3565b91506139848261391d565b604082019050919050565b600060208201905081810360008301526139a88161396c565b9050919050565b60006139ba826125c8565b91506139c5836125c8565b92508282026139d3816125c8565b915082820484148315176139ea576139e9612b17565b5b5092915050565b7f4e487b7100000000000000000000000000000000000000000000000000000000600052604160045260246000fd5b7f4e487b7100000000000000000000000000000000000000000000000000000000600052603260045260246000fd5b6000613a5a826125c8565b915060008203613a6d57613a6c612b17565b5b600182039050919050565b7f537472696e67733a20686578206c656e67746820696e73756666696369656e74600082015250565b6000613aae6020836124c3565b9150613ab982613a78565b602082019050919050565b60006020820190508181036000830152613add81613aa1565b905091905056fea264697066735822122080f428d25d3eec62983b651a4ef0277ac6d81bd98718b0ffbdeba6748fb1122064736f6c63430008110033",
  "immutableReferences": {
    "2307": [
      {
        "length": 32,
        "start": 5994
      }
    ],
    "2309": [
      {
        "length": 32,
        "start": 5953
      }
    ],
    "2311": [
      {
        "length": 32,
        "start": 5867
      }
    ],
    "2313": [
      {
        "length": 32,
        "start": 6070
      }
    ],
    "2315": [
      {
        "length": 32,
        "start": 6103
      }
    ],
    "2317": [
      {
        "length": 32,
        "start": 6037
      }
    ]
  },
  "source": "// SPDX-License-Identifier: MIT\r\npragma solidity ^0.8.9;\r\n\r\nimport \"@openzeppelin/contracts/token/ERC20/ERC20.sol\";\r\nimport \"@openzeppelin/contracts/security/Pausable.sol\";\r\nimport \"@openzeppelin/contracts/access/AccessControl.sol\";\r\nimport \"@openzeppelin/contracts/token/ERC20/extensions/draft-ERC20Permit.sol\";\r\nimport \"@openzeppelin/contracts/token/ERC20/extensions/ERC20FlashMint.sol\";\r\n\r\ncontract PandaCoin is ERC20, Pausable, AccessControl, ERC20Permit, ERC20FlashMint {\r\n    bytes32 public constant PAUSER_ROLE = keccak256(\"PAUSER_ROLE\");\r\n    bytes32 public constant MINTER_ROLE = keccak256(\"MINTER_ROLE\");\r\n\r\n    constructor() ERC20(\"PandaCoin\", \"PDC\") ERC20Permit(\"PandaCoin\") {\r\n        _grantRole(DEFAULT_ADMIN_ROLE, msg.sender);\r\n        _grantRole(PAUSER_ROLE, msg.sender);\r\n        _mint(msg.sender, 10000000 * 10 ** decimals());\r\n        _grantRole(MINTER_ROLE, msg.sender);\r\n    }\r\n\r\n    function pause() public onlyRole(PAUSER_ROLE) {\r\n        _pause();\r\n    }\r\n\r\n    function unpause() public onlyRole(PAUSER_ROLE) {\r\n        _unpause();\r\n    }\r\n\r\n    function mint(address to, uint256 amount) public onlyRole(MINTER_ROLE) {\r\n        _mint(to, amount);\r\n    }\r\n\r\n    function _beforeTokenTransfer(address from, address to, uint256 amount)\r\n        internal\r\n        whenNotPaused\r\n        override\r\n    {\r\n        super._beforeTokenTransfer(from, to, amount);\r\n    }\r\n}\r\n",
  "sourcePath": "D:\\Documents\\Events\\2023\\NUS Fintech Month 2022 Hackathon\\pandaborderless-git\\cross-border-payment-api\\contracts\\PandaCoin.sol",
  "compiler": {
    "name": "solc",
    "version": "0.8.17+commit.8df45f5f.Emscripten.clang"
  },
  "schemaVersion": "3.4.11",
  "updatedAt": "2023-01-15T01:11:49.924Z",
  "networkType": "ethereum",
  "devdoc": {
    "kind": "dev",
    "methods": {
      "DOMAIN_SEPARATOR()": {
        "details": "See {IERC20Permit-DOMAIN_SEPARATOR}."
      },
      "allowance(address,address)": {
        "details": "See {IERC20-allowance}."
      },
      "approve(address,uint256)": {
        "details": "See {IERC20-approve}. NOTE: If `amount` is the maximum `uint256`, the allowance is not updated on `transferFrom`. This is semantically equivalent to an infinite approval. Requirements: - `spender` cannot be the zero address."
      },
      "balanceOf(address)": {
        "details": "See {IERC20-balanceOf}."
      },
      "decimals()": {
        "details": "Returns the number of decimals used to get its user representation. For example, if `decimals` equals `2`, a balance of `505` tokens should be displayed to a user as `5.05` (`505 / 10 ** 2`). Tokens usually opt for a value of 18, imitating the relationship between Ether and Wei. This is the value {ERC20} uses, unless this function is overridden; NOTE: This information is only used for _display_ purposes: it in no way affects any of the arithmetic of the contract, including {IERC20-balanceOf} and {IERC20-transfer}."
      },
      "decreaseAllowance(address,uint256)": {
        "details": "Atomically decreases the allowance granted to `spender` by the caller. This is an alternative to {approve} that can be used as a mitigation for problems described in {IERC20-approve}. Emits an {Approval} event indicating the updated allowance. Requirements: - `spender` cannot be the zero address. - `spender` must have allowance for the caller of at least `subtractedValue`."
      },
      "flashFee(address,uint256)": {
        "details": "Returns the fee applied when doing flash loans. This function calls the {_flashFee} function which returns the fee applied when doing flash loans.",
        "params": {
          "amount": "The amount of tokens to be loaned.",
          "token": "The token to be flash loaned."
        },
        "returns": {
          "_0": "The fees applied to the corresponding flash loan."
        }
      },
      "flashLoan(address,address,uint256,bytes)": {
        "details": "Performs a flash loan. New tokens are minted and sent to the `receiver`, who is required to implement the {IERC3156FlashBorrower} interface. By the end of the flash loan, the receiver is expected to own amount + fee tokens and have them approved back to the token contract itself so they can be burned.",
        "params": {
          "amount": "The amount of tokens to be loaned.",
          "data": "An arbitrary datafield that is passed to the receiver.",
          "receiver": "The receiver of the flash loan. Should implement the {IERC3156FlashBorrower-onFlashLoan} interface.",
          "token": "The token to be flash loaned. Only `address(this)` is supported."
        },
        "returns": {
          "_0": "`true` if the flash loan was successful."
        }
      },
      "getRoleAdmin(bytes32)": {
        "details": "Returns the admin role that controls `role`. See {grantRole} and {revokeRole}. To change a role's admin, use {_setRoleAdmin}."
      },
      "grantRole(bytes32,address)": {
        "details": "Grants `role` to `account`. If `account` had not been already granted `role`, emits a {RoleGranted} event. Requirements: - the caller must have ``role``'s admin role. May emit a {RoleGranted} event."
      },
      "hasRole(bytes32,address)": {
        "details": "Returns `true` if `account` has been granted `role`."
      },
      "increaseAllowance(address,uint256)": {
        "details": "Atomically increases the allowance granted to `spender` by the caller. This is an alternative to {approve} that can be used as a mitigation for problems described in {IERC20-approve}. Emits an {Approval} event indicating the updated allowance. Requirements: - `spender` cannot be the zero address."
      },
      "maxFlashLoan(address)": {
        "details": "Returns the maximum amount of tokens available for loan.",
        "params": {
          "token": "The address of the token that is requested."
        },
        "returns": {
          "_0": "The amount of token that can be loaned."
        }
      },
      "name()": {
        "details": "Returns the name of the token."
      },
      "nonces(address)": {
        "details": "See {IERC20Permit-nonces}."
      },
      "paused()": {
        "details": "Returns true if the contract is paused, and false otherwise."
      },
      "permit(address,address,uint256,uint256,uint8,bytes32,bytes32)": {
        "details": "See {IERC20Permit-permit}."
      },
      "renounceRole(bytes32,address)": {
        "details": "Revokes `role` from the calling account. Roles are often managed via {grantRole} and {revokeRole}: this function's purpose is to provide a mechanism for accounts to lose their privileges if they are compromised (such as when a trusted device is misplaced). If the calling account had been revoked `role`, emits a {RoleRevoked} event. Requirements: - the caller must be `account`. May emit a {RoleRevoked} event."
      },
      "revokeRole(bytes32,address)": {
        "details": "Revokes `role` from `account`. If `account` had been granted `role`, emits a {RoleRevoked} event. Requirements: - the caller must have ``role``'s admin role. May emit a {RoleRevoked} event."
      },
      "supportsInterface(bytes4)": {
        "details": "See {IERC165-supportsInterface}."
      },
      "symbol()": {
        "details": "Returns the symbol of the token, usually a shorter version of the name."
      },
      "totalSupply()": {
        "details": "See {IERC20-totalSupply}."
      },
      "transfer(address,uint256)": {
        "details": "See {IERC20-transfer}. Requirements: - `to` cannot be the zero address. - the caller must have a balance of at least `amount`."
      },
      "transferFrom(address,address,uint256)": {
        "details": "See {IERC20-transferFrom}. Emits an {Approval} event indicating the updated allowance. This is not required by the EIP. See the note at the beginning of {ERC20}. NOTE: Does not update the allowance if the current allowance is the maximum `uint256`. Requirements: - `from` and `to` cannot be the zero address. - `from` must have a balance of at least `amount`. - the caller must have allowance for ``from``'s tokens of at least `amount`."
      }
    },
    "version": 1
  },
  "userdoc": {
    "kind": "user",
    "methods": {},
    "version": 1
  }
}