{
  "contractName": "SimpleStorage",
  "abi": [
    {
      "inputs": [
        {
          "internalType": "uint256",
          "name": "initVal",
          "type": "uint256"
        }
      ],
      "stateMutability": "nonpayable",
      "type": "constructor"
    },
    {
      "anonymous": false,
      "inputs": [
        {
          "indexed": false,
          "internalType": "address",
          "name": "_to",
          "type": "address"
        },
        {
          "indexed": false,
          "internalType": "uint256",
          "name": "_amount",
          "type": "uint256"
        }
      ],
      "name": "stored",
      "type": "event"
    },
    {
      "inputs": [],
      "name": "storedData",
      "outputs": [
        {
          "internalType": "uint256",
          "name": "",
          "type": "uint256"
        }
      ],
      "stateMutability": "view",
      "type": "function",
      "constant": true
    },
    {
      "inputs": [
        {
          "internalType": "uint256",
          "name": "x",
          "type": "uint256"
        }
      ],
      "name": "set",
      "outputs": [],
      "stateMutability": "nonpayable",
      "type": "function"
    },
    {
      "inputs": [],
      "name": "get",
      "outputs": [
        {
          "internalType": "uint256",
          "name": "retVal",
          "type": "uint256"
        }
      ],
      "stateMutability": "view",
      "type": "function",
      "constant": true
    }
  ],
  "bytecode": "0x608060405234801561001057600080fd5b5060405161038a38038061038a833981810160405281019061003291906100b3565b7fc9db20adedc6cf2b5d25252b101ab03e124902a73fcb12b753f3d1aaa2d8f9f53382604051610063929190610130565b60405180910390a18060008190555050610159565b600080fd5b6000819050919050565b6100908161007d565b811461009b57600080fd5b50565b6000815190506100ad81610087565b92915050565b6000602082840312156100c9576100c8610078565b5b60006100d78482850161009e565b91505092915050565b600073ffffffffffffffffffffffffffffffffffffffff82169050919050565b600061010b826100e0565b9050919050565b61011b81610100565b82525050565b61012a8161007d565b82525050565b60006040820190506101456000830185610112565b6101526020830184610121565b9392505050565b610222806101686000396000f3fe608060405234801561001057600080fd5b50600436106100415760003560e01c80632a1afcd91461004657806360fe47b1146100645780636d4ce63c14610080575b600080fd5b61004e61009e565b60405161005b9190610109565b60405180910390f35b61007e60048036038101906100799190610155565b6100a4565b005b6100886100e7565b6040516100959190610109565b60405180910390f35b60005481565b7fc9db20adedc6cf2b5d25252b101ab03e124902a73fcb12b753f3d1aaa2d8f9f533826040516100d59291906101c3565b60405180910390a18060008190555050565b60008054905090565b6000819050919050565b610103816100f0565b82525050565b600060208201905061011e60008301846100fa565b92915050565b600080fd5b610132816100f0565b811461013d57600080fd5b50565b60008135905061014f81610129565b92915050565b60006020828403121561016b5761016a610124565b5b600061017984828501610140565b91505092915050565b600073ffffffffffffffffffffffffffffffffffffffff82169050919050565b60006101ad82610182565b9050919050565b6101bd816101a2565b82525050565b60006040820190506101d860008301856101b4565b6101e560208301846100fa565b939250505056fea26469706673582212207088f52dea0d932717febaa515069b7375c3ab50e2d5d84e374cc71bdb35748c64736f6c63430008110033",
  "immutableReferences": {},
  "source": "pragma solidity ^0.8.10;\r\n\r\ncontract SimpleStorage {\r\n  uint public storedData;\r\n  event stored(address _to, uint _amount);\r\n\r\n  constructor(uint initVal) {\r\n    emit stored(msg.sender, initVal);\r\n    storedData = initVal;\r\n  }\r\n\r\n  function set(uint x) public {\r\n    emit stored(msg.sender, x);\r\n    storedData = x;\r\n  }\r\n\r\n  function get() view public returns (uint retVal) {\r\n    return storedData;\r\n  }\r\n}",
  "sourcePath": "D:\\Documents\\Events\\2023\\NUS Fintech Month 2022 Hackathon\\pandaborderless-git\\cross-border-payment-api\\contracts\\SimpleStorage.sol",
  "compiler": {
    "name": "solc",
    "version": "0.8.17+commit.8df45f5f.Emscripten.clang"
  },
  "schemaVersion": "3.4.11",
  "updatedAt": "2023-01-14T10:57:31.930Z",
  "networkType": "ethereum",
  "devdoc": {
    "kind": "dev",
    "methods": {},
    "version": 1
  },
  "userdoc": {
    "kind": "user",
    "methods": {},
    "version": 1
  }
}